{
  "_format": "hh-sol-artifact-1",
  "contractName": "Ecommerce",
  "sourceName": "contracts/Ecommerce.sol",
  "abi": [
    {
      "anonymous": false,
      "inputs": [
        {
          "indexed": false,
          "internalType": "string",
          "name": "name",
          "type": "string"
        },
        {
          "indexed": false,
          "internalType": "string",
          "name": "deliveryAdd",
          "type": "string"
        },
        {
          "indexed": false,
          "internalType": "address",
          "name": "buyerAddress",
          "type": "address"
        }
      ],
      "name": "BuyerAdded",
      "type": "event"
    },
    {
      "anonymous": false,
      "inputs": [
        {
          "indexed": false,
          "internalType": "uint256",
          "name": "pid",
          "type": "uint256"
        },
        {
          "indexed": false,
          "internalType": "string",
          "name": "name",
          "type": "string"
        },
        {
          "indexed": false,
          "internalType": "uint256",
          "name": "price",
          "type": "uint256"
        },
        {
          "indexed": false,
          "internalType": "uint256",
          "name": "stock",
          "type": "uint256"
        },
        {
          "indexed": false,
          "internalType": "string",
          "name": "imgHash",
          "type": "string"
        },
        {
          "indexed": false,
          "internalType": "string",
          "name": "desc",
          "type": "string"
        },
        {
          "indexed": false,
          "internalType": "string",
          "name": "category",
          "type": "string"
        },
        {
          "indexed": false,
          "internalType": "address payable",
          "name": "sellerAddress",
          "type": "address"
        }
      ],
      "name": "ProductAdded",
      "type": "event"
    },
    {
      "anonymous": false,
      "inputs": [
        {
          "indexed": false,
          "internalType": "uint256",
          "name": "oId",
          "type": "uint256"
        },
        {
          "indexed": false,
          "internalType": "uint256",
          "name": "pid",
          "type": "uint256"
        },
        {
          "indexed": false,
          "internalType": "uint256",
          "name": "qnt",
          "type": "uint256"
        },
        {
          "indexed": false,
          "internalType": "uint256",
          "name": "amt",
          "type": "uint256"
        },
        {
          "indexed": false,
          "internalType": "address",
          "name": "buyerAddress",
          "type": "address"
        }
      ],
      "name": "ProductBought",
      "type": "event"
    },
    {
      "anonymous": false,
      "inputs": [
        {
          "indexed": false,
          "internalType": "string",
          "name": "name",
          "type": "string"
        },
        {
          "indexed": false,
          "internalType": "address payable",
          "name": "sellerAddress",
          "type": "address"
        }
      ],
      "name": "SellerAdded",
      "type": "event"
    },
    {
      "inputs": [
        {
          "internalType": "address",
          "name": "",
          "type": "address"
        }
      ],
      "name": "SellerProductCount",
      "outputs": [
        {
          "internalType": "uint256",
          "name": "",
          "type": "uint256"
        }
      ],
      "stateMutability": "view",
      "type": "function"
    },
    {
      "inputs": [],
      "name": "_isOldBuyer",
      "outputs": [
        {
          "internalType": "bool",
          "name": "",
          "type": "bool"
        }
      ],
      "stateMutability": "view",
      "type": "function"
    },
    {
      "inputs": [
        {
          "internalType": "string",
          "name": "_name",
          "type": "string"
        },
        {
          "internalType": "string",
          "name": "_deliveryAdd",
          "type": "string"
        }
      ],
      "name": "addBuyer",
      "outputs": [],
      "stateMutability": "nonpayable",
      "type": "function"
    },
    {
      "inputs": [
        {
          "internalType": "string",
          "name": "_name",
          "type": "string"
        },
        {
          "internalType": "uint256",
          "name": "_price",
          "type": "uint256"
        },
        {
          "internalType": "uint256",
          "name": "_stock",
          "type": "uint256"
        },
        {
          "internalType": "string",
          "name": "_desc",
          "type": "string"
        },
        {
          "internalType": "string",
          "name": "_category",
          "type": "string"
        },
        {
          "internalType": "string",
          "name": "_imgHash",
          "type": "string"
        }
      ],
      "name": "addProduct",
      "outputs": [],
      "stateMutability": "nonpayable",
      "type": "function"
    },
    {
      "inputs": [
        {
          "internalType": "string",
          "name": "_name",
          "type": "string"
        }
      ],
      "name": "addSeller",
      "outputs": [],
      "stateMutability": "nonpayable",
      "type": "function"
    },
    {
      "inputs": [
        {
          "internalType": "string[]",
          "name": "_prodName",
          "type": "string[]"
        },
        {
          "internalType": "uint256[]",
          "name": "_prodPrice",
          "type": "uint256[]"
        },
        {
          "internalType": "uint256[]",
          "name": "_qnt",
          "type": "uint256[]"
        },
        {
          "internalType": "string[]",
          "name": "_imgHash",
          "type": "string[]"
        },
        {
          "internalType": "uint256[]",
          "name": "_prodIds",
          "type": "uint256[]"
        },
        {
          "internalType": "string",
          "name": "_paymentId",
          "type": "string"
        },
        {
          "internalType": "string",
          "name": "_orderStatus",
          "type": "string"
        }
      ],
      "name": "buyProduct",
      "outputs": [],
      "stateMutability": "payable",
      "type": "function"
    },
    {
      "inputs": [
        {
          "internalType": "uint256",
          "name": "",
          "type": "uint256"
        }
      ],
      "name": "buyers",
      "outputs": [
        {
          "internalType": "string",
          "name": "name",
          "type": "string"
        },
        {
          "internalType": "string",
          "name": "deliveryAdd",
          "type": "string"
        },
        {
          "internalType": "address payable",
          "name": "buyerAddress",
          "type": "address"
        }
      ],
      "stateMutability": "view",
      "type": "function"
    },
    {
      "inputs": [
        {
          "internalType": "uint256",
          "name": "_oId",
          "type": "uint256"
        }
      ],
      "name": "confirmOrder",
      "outputs": [],
      "stateMutability": "nonpayable",
      "type": "function"
    },
    {
      "inputs": [
        {
          "internalType": "uint256",
          "name": "_oId",
          "type": "uint256"
        }
      ],
      "name": "confirmation",
      "outputs": [],
      "stateMutability": "payable",
      "type": "function"
    },
    {
      "inputs": [],
      "name": "countSellerOrders",
      "outputs": [
        {
          "internalType": "uint256",
          "name": "",
          "type": "uint256"
        }
      ],
      "stateMutability": "view",
      "type": "function"
    },
    {
      "inputs": [
        {
          "internalType": "uint256",
          "name": "_pid",
          "type": "uint256"
        },
        {
          "internalType": "uint256",
          "name": "qnt",
          "type": "uint256"
        }
      ],
      "name": "decreaseStock",
      "outputs": [],
      "stateMutability": "nonpayable",
      "type": "function"
    },
    {
      "inputs": [],
      "name": "getAllProducts",
      "outputs": [
        {
          "components": [
            {
              "internalType": "uint256",
              "name": "pid",
              "type": "uint256"
            },
            {
              "internalType": "string",
              "name": "name",
              "type": "string"
            },
            {
              "internalType": "uint256",
              "name": "price",
              "type": "uint256"
            },
            {
              "internalType": "uint256",
              "name": "stock",
              "type": "uint256"
            },
            {
              "internalType": "string",
              "name": "imgHash",
              "type": "string"
            },
            {
              "internalType": "string",
              "name": "desc",
              "type": "string"
            },
            {
              "internalType": "string",
              "name": "category",
              "type": "string"
            },
            {
              "internalType": "address payable",
              "name": "sellerAddress",
              "type": "address"
            }
          ],
          "internalType": "struct Products.Product[]",
          "name": "",
          "type": "tuple[]"
        }
      ],
      "stateMutability": "view",
      "type": "function"
    },
    {
      "inputs": [
        {
          "internalType": "address",
          "name": "_buyerAddress",
          "type": "address"
        }
      ],
      "name": "getBuyerInfo",
      "outputs": [
        {
          "components": [
            {
              "internalType": "string",
              "name": "name",
              "type": "string"
            },
            {
              "internalType": "string",
              "name": "deliveryAdd",
              "type": "string"
            },
            {
              "internalType": "address payable",
              "name": "buyerAddress",
              "type": "address"
            }
          ],
          "internalType": "struct Buyers.Buyer",
          "name": "",
          "type": "tuple"
        }
      ],
      "stateMutability": "view",
      "type": "function"
    },
    {
      "inputs": [],
      "name": "getBuyerOrders",
      "outputs": [
        {
          "components": [
            {
              "internalType": "uint256",
              "name": "ordId",
              "type": "uint256"
            },
            {
              "internalType": "uint256",
              "name": "pid",
              "type": "uint256"
            },
            {
              "internalType": "uint256",
              "name": "qnt",
              "type": "uint256"
            },
            {
              "internalType": "uint256",
              "name": "amt",
              "type": "uint256"
            },
            {
              "internalType": "address payable",
              "name": "sellerAddress",
              "type": "address"
            },
            {
              "internalType": "bool",
              "name": "paymentStatus",
              "type": "bool"
            },
            {
              "internalType": "string",
              "name": "orderStatus",
              "type": "string"
            },
            {
              "internalType": "string",
              "name": "pmtId",
              "type": "string"
            },
            {
              "internalType": "address",
              "name": "buyerAdd",
              "type": "address"
            }
          ],
          "internalType": "struct Buyers.Order[]",
          "name": "",
          "type": "tuple[]"
        }
      ],
      "stateMutability": "view",
      "type": "function"
    },
    {
      "inputs": [
        {
          "internalType": "uint256",
          "name": "_pid",
          "type": "uint256"
        }
      ],
      "name": "getName",
      "outputs": [
        {
          "internalType": "string",
          "name": "",
          "type": "string"
        }
      ],
      "stateMutability": "view",
      "type": "function"
    },
    {
      "inputs": [
        {
          "internalType": "uint256",
          "name": "_oId",
          "type": "uint256"
        }
      ],
      "name": "getOrderById",
      "outputs": [
        {
          "components": [
            {
              "internalType": "uint256",
              "name": "ordId",
              "type": "uint256"
            },
            {
              "internalType": "uint256",
              "name": "pid",
              "type": "uint256"
            },
            {
              "internalType": "uint256",
              "name": "qnt",
              "type": "uint256"
            },
            {
              "internalType": "uint256",
              "name": "amt",
              "type": "uint256"
            },
            {
              "internalType": "address payable",
              "name": "sellerAddress",
              "type": "address"
            },
            {
              "internalType": "bool",
              "name": "paymentStatus",
              "type": "bool"
            },
            {
              "internalType": "string",
              "name": "orderStatus",
              "type": "string"
            },
            {
              "internalType": "string",
              "name": "pmtId",
              "type": "string"
            },
            {
              "internalType": "address",
              "name": "buyerAdd",
              "type": "address"
            }
          ],
          "internalType": "struct Buyers.Order",
          "name": "",
          "type": "tuple"
        }
      ],
      "stateMutability": "view",
      "type": "function"
    },
    {
      "inputs": [
        {
          "internalType": "uint256",
          "name": "_oId",
          "type": "uint256"
        }
      ],
      "name": "getOrderSellerAddress",
      "outputs": [
        {
          "internalType": "address payable",
          "name": "",
          "type": "address"
        }
      ],
      "stateMutability": "view",
      "type": "function"
    },
    {
      "inputs": [
        {
          "internalType": "uint256",
          "name": "_oId",
          "type": "uint256"
        }
      ],
      "name": "getPendingOrderAmt",
      "outputs": [
        {
          "internalType": "uint256",
          "name": "",
          "type": "uint256"
        }
      ],
      "stateMutability": "view",
      "type": "function"
    },
    {
      "inputs": [
        {
          "internalType": "uint256",
          "name": "_pid",
          "type": "uint256"
        }
      ],
      "name": "getPrice",
      "outputs": [
        {
          "internalType": "uint256",
          "name": "",
          "type": "uint256"
        }
      ],
      "stateMutability": "view",
      "type": "function"
    },
    {
      "inputs": [
        {
          "internalType": "uint256",
          "name": "_pid",
          "type": "uint256"
        }
      ],
      "name": "getProduct",
      "outputs": [
        {
          "components": [
            {
              "internalType": "uint256",
              "name": "pid",
              "type": "uint256"
            },
            {
              "internalType": "string",
              "name": "name",
              "type": "string"
            },
            {
              "internalType": "uint256",
              "name": "price",
              "type": "uint256"
            },
            {
              "internalType": "uint256",
              "name": "stock",
              "type": "uint256"
            },
            {
              "internalType": "string",
              "name": "imgHash",
              "type": "string"
            },
            {
              "internalType": "string",
              "name": "desc",
              "type": "string"
            },
            {
              "internalType": "string",
              "name": "category",
              "type": "string"
            },
            {
              "internalType": "address payable",
              "name": "sellerAddress",
              "type": "address"
            }
          ],
          "internalType": "struct Products.Product",
          "name": "",
          "type": "tuple"
        }
      ],
      "stateMutability": "view",
      "type": "function"
    },
    {
      "inputs": [
        {
          "internalType": "string",
          "name": "category",
          "type": "string"
        }
      ],
      "name": "getProductsByCategory",
      "outputs": [
        {
          "components": [
            {
              "internalType": "uint256",
              "name": "pid",
              "type": "uint256"
            },
            {
              "internalType": "string",
              "name": "name",
              "type": "string"
            },
            {
              "internalType": "uint256",
              "name": "price",
              "type": "uint256"
            },
            {
              "internalType": "uint256",
              "name": "stock",
              "type": "uint256"
            },
            {
              "internalType": "string",
              "name": "imgHash",
              "type": "string"
            },
            {
              "internalType": "string",
              "name": "desc",
              "type": "string"
            },
            {
              "internalType": "string",
              "name": "category",
              "type": "string"
            },
            {
              "internalType": "address payable",
              "name": "sellerAddress",
              "type": "address"
            }
          ],
          "internalType": "struct Products.Product[]",
          "name": "",
          "type": "tuple[]"
        }
      ],
      "stateMutability": "view",
      "type": "function"
    },
    {
      "inputs": [],
      "name": "getSeller",
      "outputs": [
        {
          "components": [
            {
              "internalType": "string",
              "name": "name",
              "type": "string"
            },
            {
              "internalType": "address payable",
              "name": "sellerAddress",
              "type": "address"
            }
          ],
          "internalType": "struct Sellers.Seller",
          "name": "",
          "type": "tuple"
        }
      ],
      "stateMutability": "view",
      "type": "function"
    },
    {
      "inputs": [
        {
          "internalType": "uint256",
          "name": "_pid",
          "type": "uint256"
        }
      ],
      "name": "getSellerAddress",
      "outputs": [
        {
          "internalType": "address payable",
          "name": "",
          "type": "address"
        }
      ],
      "stateMutability": "view",
      "type": "function"
    },
    {
      "inputs": [],
      "name": "getSellerOrders",
      "outputs": [
        {
          "components": [
            {
              "internalType": "uint256",
              "name": "ordId",
              "type": "uint256"
            },
            {
              "internalType": "uint256",
              "name": "pid",
              "type": "uint256"
            },
            {
              "internalType": "uint256",
              "name": "qnt",
              "type": "uint256"
            },
            {
              "internalType": "uint256",
              "name": "amt",
              "type": "uint256"
            },
            {
              "internalType": "address payable",
              "name": "sellerAddress",
              "type": "address"
            },
            {
              "internalType": "bool",
              "name": "paymentStatus",
              "type": "bool"
            },
            {
              "internalType": "string",
              "name": "orderStatus",
              "type": "string"
            },
            {
              "internalType": "string",
              "name": "pmtId",
              "type": "string"
            },
            {
              "internalType": "address",
              "name": "buyerAdd",
              "type": "address"
            }
          ],
          "internalType": "struct Buyers.Order[]",
          "name": "",
          "type": "tuple[]"
        }
      ],
      "stateMutability": "view",
      "type": "function"
    },
    {
      "inputs": [],
      "name": "getSellerProducts",
      "outputs": [
        {
          "components": [
            {
              "internalType": "uint256",
              "name": "pid",
              "type": "uint256"
            },
            {
              "internalType": "string",
              "name": "name",
              "type": "string"
            },
            {
              "internalType": "uint256",
              "name": "price",
              "type": "uint256"
            },
            {
              "internalType": "uint256",
              "name": "stock",
              "type": "uint256"
            },
            {
              "internalType": "string",
              "name": "imgHash",
              "type": "string"
            },
            {
              "internalType": "string",
              "name": "desc",
              "type": "string"
            },
            {
              "internalType": "string",
              "name": "category",
              "type": "string"
            },
            {
              "internalType": "address payable",
              "name": "sellerAddress",
              "type": "address"
            }
          ],
          "internalType": "struct Products.Product[]",
          "name": "",
          "type": "tuple[]"
        }
      ],
      "stateMutability": "view",
      "type": "function"
    },
    {
      "inputs": [],
      "name": "getbBalance",
      "outputs": [
        {
          "internalType": "uint256",
          "name": "",
          "type": "uint256"
        }
      ],
      "stateMutability": "view",
      "type": "function"
    },
    {
      "inputs": [],
      "name": "isOldSeller",
      "outputs": [
        {
          "internalType": "bool",
          "name": "",
          "type": "bool"
        }
      ],
      "stateMutability": "view",
      "type": "function"
    },
    {
      "inputs": [],
      "name": "orderId",
      "outputs": [
        {
          "internalType": "uint256",
          "name": "",
          "type": "uint256"
        }
      ],
      "stateMutability": "view",
      "type": "function"
    },
    {
      "inputs": [
        {
          "internalType": "address",
          "name": "",
          "type": "address"
        },
        {
          "internalType": "uint256",
          "name": "",
          "type": "uint256"
        }
      ],
      "name": "orderList",
      "outputs": [
        {
          "internalType": "uint256",
          "name": "ordId",
          "type": "uint256"
        },
        {
          "internalType": "uint256",
          "name": "pid",
          "type": "uint256"
        },
        {
          "internalType": "uint256",
          "name": "qnt",
          "type": "uint256"
        },
        {
          "internalType": "uint256",
          "name": "amt",
          "type": "uint256"
        },
        {
          "internalType": "address payable",
          "name": "sellerAddress",
          "type": "address"
        },
        {
          "internalType": "bool",
          "name": "paymentStatus",
          "type": "bool"
        },
        {
          "internalType": "string",
          "name": "orderStatus",
          "type": "string"
        },
        {
          "internalType": "string",
          "name": "pmtId",
          "type": "string"
        },
        {
          "internalType": "address",
          "name": "buyerAdd",
          "type": "address"
        }
      ],
      "stateMutability": "view",
      "type": "function"
    },
    {
      "inputs": [],
      "name": "productCount",
      "outputs": [
        {
          "internalType": "uint256",
          "name": "",
          "type": "uint256"
        }
      ],
      "stateMutability": "view",
      "type": "function"
    },
    {
      "inputs": [
        {
          "internalType": "uint256",
          "name": "",
          "type": "uint256"
        }
      ],
      "name": "products",
      "outputs": [
        {
          "internalType": "uint256",
          "name": "pid",
          "type": "uint256"
        },
        {
          "internalType": "string",
          "name": "name",
          "type": "string"
        },
        {
          "internalType": "uint256",
          "name": "price",
          "type": "uint256"
        },
        {
          "internalType": "uint256",
          "name": "stock",
          "type": "uint256"
        },
        {
          "internalType": "string",
          "name": "imgHash",
          "type": "string"
        },
        {
          "internalType": "string",
          "name": "desc",
          "type": "string"
        },
        {
          "internalType": "string",
          "name": "category",
          "type": "string"
        },
        {
          "internalType": "address payable",
          "name": "sellerAddress",
          "type": "address"
        }
      ],
      "stateMutability": "view",
      "type": "function"
    },
    {
      "inputs": [
        {
          "internalType": "uint256",
          "name": "",
          "type": "uint256"
        }
      ],
      "name": "sellers",
      "outputs": [
        {
          "internalType": "string",
          "name": "name",
          "type": "string"
        },
        {
          "internalType": "address payable",
          "name": "sellerAddress",
          "type": "address"
        }
      ],
      "stateMutability": "view",
      "type": "function"
    },
    {
      "inputs": [
        {
          "internalType": "uint256",
          "name": "_ordId",
          "type": "uint256"
        },
        {
          "internalType": "address",
          "name": "_buyerAddress",
          "type": "address"
        },
        {
          "internalType": "string",
          "name": "_orderStatus",
          "type": "string"
        }
      ],
      "name": "updateOrderStatus",
      "outputs": [],
      "stateMutability": "nonpayable",
      "type": "function"
    }
  ],
  "bytecode": "0x608060405234801561001057600080fd5b50615e9580620000216000396000f3fe6080604052600436106101ee5760003560e01c80639d03ade91161010d578063b9db15b4116100a0578063dbd0e1b61161006f578063dbd0e1b61461074b578063e0f6ef8714610776578063e7572230146107a1578063f2aa8218146107de578063f4fb9b2f1461081d576101ee565b8063b9db15b41461067c578063bf4fe2c6146106b9578063c819998b146106e2578063cee26ed51461070d576101ee565b8063ad0662ff116100dc578063ad0662ff146105d1578063b17c3f99146105fa578063b685bca014610616578063b819599514610653576101ee565b80639d03ade9146104ef578063a675364d1461052c578063ab9e6c9714610569578063abf2ec9414610594576101ee565b806342b50a7a116101855780637acc0b20116101545780637acc0b201461041a578063871da6821461045e5780638ac7d79c146104895780638f38cc7b146104b2576101ee565b806342b50a7a1461033857806348fbb6e0146103755780636b8ff574146103b2578063700db752146103ef576101ee565b806319e31953116101c157806319e319531461029d5780631cefae5b146102b9578063245349d3146102e4578063286447481461030d576101ee565b806301b3490d146101f357806302ee3a521461021e5780630a2f449e14610249578063163de5e514610272575b600080fd5b3480156101ff57600080fd5b50610208610862565b60405161021591906155db565b60405180910390f35b34801561022a57600080fd5b50610233610d63565b60405161024091906155db565b60405180910390f35b34801561025557600080fd5b50610270600480360381019061026b9190614d38565b61107f565b005b34801561027e57600080fd5b50610287611329565b60405161029491906157dc565b60405180910390f35b6102b760048036038101906102b29190614b45565b61132f565b005b3480156102c557600080fd5b506102ce611578565b6040516102db91906155fd565b60405180910390f35b3480156102f057600080fd5b5061030b60048036038101906103069190614c8b565b611652565b005b34801561031957600080fd5b50610322611792565b60405161032f91906155fd565b60405180910390f35b34801561034457600080fd5b5061035f600480360381019061035a9190614e21565b61186c565b60405161036c9190615776565b60405180910390f35b34801561038157600080fd5b5061039c60048036038101906103979190614e21565b611d10565b6040516103a991906157dc565b60405180910390f35b3480156103be57600080fd5b506103d960048036038101906103d49190614e21565b611d2b565b6040516103e69190615618565b60405180910390f35b3480156103fb57600080fd5b50610404611e13565b60405161041191906155b9565b60405180910390f35b34801561042657600080fd5b50610441600480360381019061043c9190614e21565b612325565b6040516104559897969594939291906157f7565b60405180910390f35b34801561046a57600080fd5b506104736125bd565b60405161048091906157dc565b60405180910390f35b34801561049557600080fd5b506104b060048036038101906104ab9190614e21565b6129b5565b005b3480156104be57600080fd5b506104d960048036038101906104d49190614c8b565b612b6d565b6040516104e691906155db565b60405180910390f35b3480156104fb57600080fd5b5061051660048036038101906105119190614ae0565b613008565b6040516105239190615754565b60405180910390f35b34801561053857600080fd5b50610553600480360381019061054e9190614e21565b6132ae565b604051610560919061559e565b60405180910390f35b34801561057557600080fd5b5061057e61332e565b60405161058b91906157dc565b60405180910390f35b3480156105a057600080fd5b506105bb60048036038101906105b69190614ae0565b613336565b6040516105c891906157dc565b60405180910390f35b3480156105dd57600080fd5b506105f860048036038101906105f39190614eb1565b61334e565b005b610614600480360381019061060f9190614e21565b61340e565b005b34801561062257600080fd5b5061063d60048036038101906106389190614e21565b61347d565b60405161064a919061559e565b60405180910390f35b34801561065f57600080fd5b5061067a60048036038101906106759190614e4a565b613498565b005b34801561068857600080fd5b506106a3600480360381019061069e9190614e21565b613632565b6040516106b09190615798565b60405180910390f35b3480156106c557600080fd5b506106e060048036038101906106db9190614ccc565b61395c565b005b3480156106ee57600080fd5b506106f7613a8c565b60405161070491906155b9565b60405180910390f35b34801561071957600080fd5b50610734600480360381019061072f9190614e21565b613d3c565b60405161074292919061563a565b60405180910390f35b34801561075757600080fd5b50610760613e18565b60405161076d91906157ba565b60405180910390f35b34801561078257600080fd5b5061078b614093565b60405161079891906157dc565b60405180910390f35b3480156107ad57600080fd5b506107c860048036038101906107c39190614e21565b614099565b6040516107d591906157dc565b60405180910390f35b3480156107ea57600080fd5b5061080560048036038101906108009190614e21565b6140f9565b604051610814939291906156af565b60405180910390f35b34801561082957600080fd5b50610844600480360381019061083f9190614b09565b614263565b604051610859999897969594939291906158e4565b60405180910390f35b60606000600260003373ffffffffffffffffffffffffffffffffffffffff1673ffffffffffffffffffffffffffffffffffffffff1681526020019081526020016000205490506000808267ffffffffffffffff8111156108eb577f4e487b7100000000000000000000000000000000000000000000000000000000600052604160045260246000fd5b60405190808252806020026020018201604052801561092457816020015b610911614729565b8152602001906001900390816109095790505b50905060005b600180549050811015610d59573373ffffffffffffffffffffffffffffffffffffffff1660018281548110610988577f4e487b7100000000000000000000000000000000000000000000000000000000600052603260045260246000fd5b906000526020600020906008020160070160009054906101000a900473ffffffffffffffffffffffffffffffffffffffff1673ffffffffffffffffffffffffffffffffffffffff161415610d465760018181548110610a10577f4e487b7100000000000000000000000000000000000000000000000000000000600052603260045260246000fd5b90600052602060002090600802016040518061010001604052908160008201548152602001600182018054610a4490615c6c565b80601f0160208091040260200160405190810160405280929190818152602001828054610a7090615c6c565b8015610abd5780601f10610a9257610100808354040283529160200191610abd565b820191906000526020600020905b815481529060010190602001808311610aa057829003601f168201915b505050505081526020016002820154815260200160038201548152602001600482018054610aea90615c6c565b80601f0160208091040260200160405190810160405280929190818152602001828054610b1690615c6c565b8015610b635780601f10610b3857610100808354040283529160200191610b63565b820191906000526020600020905b815481529060010190602001808311610b4657829003601f168201915b50505050508152602001600582018054610b7c90615c6c565b80601f0160208091040260200160405190810160405280929190818152602001828054610ba890615c6c565b8015610bf55780601f10610bca57610100808354040283529160200191610bf5565b820191906000526020600020905b815481529060010190602001808311610bd857829003601f168201915b50505050508152602001600682018054610c0e90615c6c565b80601f0160208091040260200160405190810160405280929190818152602001828054610c3a90615c6c565b8015610c875780601f10610c5c57610100808354040283529160200191610c87565b820191906000526020600020905b815481529060010190602001808311610c6a57829003601f168201915b505050505081526020016007820160009054906101000a900473ffffffffffffffffffffffffffffffffffffffff1673ffffffffffffffffffffffffffffffffffffffff1673ffffffffffffffffffffffffffffffffffffffff1681525050828481518110610d1f577f4e487b7100000000000000000000000000000000000000000000000000000000600052603260045260246000fd5b60200260200101819052508280610d3590615ccf565b93505082841415610d4557610d59565b5b8080610d5190615ccf565b91505061092a565b5080935050505090565b60606001805480602002602001604051908101604052809291908181526020016000905b8282101561107657838290600052602060002090600802016040518061010001604052908160008201548152602001600182018054610dc590615c6c565b80601f0160208091040260200160405190810160405280929190818152602001828054610df190615c6c565b8015610e3e5780601f10610e1357610100808354040283529160200191610e3e565b820191906000526020600020905b815481529060010190602001808311610e2157829003601f168201915b505050505081526020016002820154815260200160038201548152602001600482018054610e6b90615c6c565b80601f0160208091040260200160405190810160405280929190818152602001828054610e9790615c6c565b8015610ee45780601f10610eb957610100808354040283529160200191610ee4565b820191906000526020600020905b815481529060010190602001808311610ec757829003601f168201915b50505050508152602001600582018054610efd90615c6c565b80601f0160208091040260200160405190810160405280929190818152602001828054610f2990615c6c565b8015610f765780601f10610f4b57610100808354040283529160200191610f76565b820191906000526020600020905b815481529060010190602001808311610f5957829003601f168201915b50505050508152602001600682018054610f8f90615c6c565b80601f0160208091040260200160405190810160405280929190818152602001828054610fbb90615c6c565b80156110085780601f10610fdd57610100808354040283529160200191611008565b820191906000526020600020905b815481529060010190602001808311610feb57829003601f168201915b505050505081526020016007820160009054906101000a900473ffffffffffffffffffffffffffffffffffffffff1673ffffffffffffffffffffffffffffffffffffffff1673ffffffffffffffffffffffffffffffffffffffff168152505081526020019060010190610d87565b50505050905090565b611087611578565b61109057600080fd5b600084116110d3576040517f08c379a00000000000000000000000000000000000000000000000000000000081526004016110ca90615714565b60405180910390fd5b60008511611116576040517f08c379a000000000000000000000000000000000000000000000000000000000815260040161110d90615734565b60405180910390fd5b60008081548092919061112890615ccf565b9190505550600160405180610100016040528060005481526020018881526020018781526020018681526020018381526020018581526020018481526020013373ffffffffffffffffffffffffffffffffffffffff1681525090806001815401808255809150506001900390600052602060002090600802016000909190919091506000820151816000015560208201518160010190805190602001906111d0929190614784565b5060408201518160020155606082015181600301556080820151816004019080519060200190611201929190614784565b5060a082015181600501908051906020019061121e929190614784565b5060c082015181600601908051906020019061123b929190614784565b5060e08201518160070160006101000a81548173ffffffffffffffffffffffffffffffffffffffff021916908373ffffffffffffffffffffffffffffffffffffffff1602179055505050600260003373ffffffffffffffffffffffffffffffffffffffff1673ffffffffffffffffffffffffffffffffffffffff16815260200190815260200160002060008154809291906112d590615ccf565b91905055507f2b9aa3eb51108ffac8f91a063125cacf423e8242290fc752ea306f005779891d600054878787858888336040516113199897969594939291906157f7565b60405180910390a1505050505050565b60045481565b611337611792565b61134057600080fd5b6000805b845181101561156d576113d7858281518110611389577f4e487b7100000000000000000000000000000000000000000000000000000000600052603260045260246000fd5b60200260200101518883815181106113ca577f4e487b7100000000000000000000000000000000000000000000000000000000600052603260045260246000fd5b602002602001015161334e565b6000878281518110611412577f4e487b7100000000000000000000000000000000000000000000000000000000600052603260045260246000fd5b6020026020010151611463878481518110611456577f4e487b7100000000000000000000000000000000000000000000000000000000600052603260045260246000fd5b6020026020010151614099565b61146d9190615b42565b9050808361147b9190615aec565b925060006114c88784815181106114bb577f4e487b7100000000000000000000000000000000000000000000000000000000600052603260045260246000fd5b60200260200101516132ae565b9050611558878481518110611506577f4e487b7100000000000000000000000000000000000000000000000000000000600052603260045260246000fd5b60200260200101518a8581518110611547577f4e487b7100000000000000000000000000000000000000000000000000000000600052603260045260246000fd5b60200260200101518484898b61442b565b5050808061156590615ccf565b915050611344565b505050505050505050565b600080600090505b60038054905081101561164957600381815481106115c7577f4e487b7100000000000000000000000000000000000000000000000000000000600052603260045260246000fd5b906000526020600020906002020160010160009054906101000a900473ffffffffffffffffffffffffffffffffffffffff1673ffffffffffffffffffffffffffffffffffffffff163373ffffffffffffffffffffffffffffffffffffffff16141561163657600191505061164f565b808061164190615ccf565b915050611580565b50600090505b90565b61165a611578565b1561169a576040517f08c379a0000000000000000000000000000000000000000000000000000000008152600401611691906156f4565b60405180910390fd5b600360405180604001604052808381526020013373ffffffffffffffffffffffffffffffffffffffff168152509080600181540180825580915050600190039060005260206000209060020201600090919091909150600082015181600001908051906020019061170c929190614784565b5060208201518160010160006101000a81548173ffffffffffffffffffffffffffffffffffffffff021916908373ffffffffffffffffffffffffffffffffffffffff16021790555050507ff02d0e098230e46e9ca6e77cd37e8cde77c5069e445f3fc8c7f5fc95168ec374813360405161178792919061563a565b60405180910390a150565b600080600090505b60058054905081101561186357600581815481106117e1577f4e487b7100000000000000000000000000000000000000000000000000000000600052603260045260246000fd5b906000526020600020906003020160020160009054906101000a900473ffffffffffffffffffffffffffffffffffffffff1673ffffffffffffffffffffffffffffffffffffffff163373ffffffffffffffffffffffffffffffffffffffff161415611850576001915050611869565b808061185b90615ccf565b91505061179a565b50600090505b90565b61187461480a565b60005b600580549050811015611c6e576000600582815481106118c0577f4e487b7100000000000000000000000000000000000000000000000000000000600052603260045260246000fd5b906000526020600020906003020160020160009054906101000a900473ffffffffffffffffffffffffffffffffffffffff1690506000600660008373ffffffffffffffffffffffffffffffffffffffff1673ffffffffffffffffffffffffffffffffffffffff168152602001908152602001600020805480602002602001604051908101604052809291908181526020016000905b82821015611b9b578382906000526020600020906008020160405180610120016040529081600082015481526020016001820154815260200160028201548152602001600382015481526020016004820160009054906101000a900473ffffffffffffffffffffffffffffffffffffffff1673ffffffffffffffffffffffffffffffffffffffff1673ffffffffffffffffffffffffffffffffffffffff1681526020016004820160149054906101000a900460ff16151515158152602001600582018054611a2290615c6c565b80601f0160208091040260200160405190810160405280929190818152602001828054611a4e90615c6c565b8015611a9b5780601f10611a7057610100808354040283529160200191611a9b565b820191906000526020600020905b815481529060010190602001808311611a7e57829003601f168201915b50505050508152602001600682018054611ab490615c6c565b80601f0160208091040260200160405190810160405280929190818152602001828054611ae090615c6c565b8015611b2d5780601f10611b0257610100808354040283529160200191611b2d565b820191906000526020600020905b815481529060010190602001808311611b1057829003601f168201915b505050505081526020016007820160009054906101000a900473ffffffffffffffffffffffffffffffffffffffff1673ffffffffffffffffffffffffffffffffffffffff1673ffffffffffffffffffffffffffffffffffffffff168152505081526020019060010190611955565b50505050905060005b8151811015611c585785828281518110611be7577f4e487b7100000000000000000000000000000000000000000000000000000000600052603260045260246000fd5b6020026020010151600001511415611c4557818181518110611c32577f4e487b7100000000000000000000000000000000000000000000000000000000600052603260045260246000fd5b6020026020010151945050505050611d0b565b8080611c5090615ccf565b915050611ba4565b5050508080611c6690615ccf565b915050611877565b50600060405180610120016040528060008152602001600081526020016000815260200160008152602001600073ffffffffffffffffffffffffffffffffffffffff168152602001600015158152602001604051806020016040528060008152508152602001604051806020016040528060008152508152602001600073ffffffffffffffffffffffffffffffffffffffff168152509050809150505b919050565b600080611d1c8361186c565b90508060600151915050919050565b606060018083611d3b9190615b9c565b81548110611d72577f4e487b7100000000000000000000000000000000000000000000000000000000600052603260045260246000fd5b90600052602060002090600802016001018054611d8e90615c6c565b80601f0160208091040260200160405190810160405280929190818152602001828054611dba90615c6c565b8015611e075780601f10611ddc57610100808354040283529160200191611e07565b820191906000526020600020905b815481529060010190602001808311611dea57829003601f168201915b50505050509050919050565b60606000611e1f6125bd565b905060008167ffffffffffffffff811115611e63577f4e487b7100000000000000000000000000000000000000000000000000000000600052604160045260246000fd5b604051908082528060200260200182016040528015611e9c57816020015b611e8961480a565b815260200190600190039081611e815790505b5090506000805b60058054905081101561231b57600060058281548110611eec577f4e487b7100000000000000000000000000000000000000000000000000000000600052603260045260246000fd5b906000526020600020906003020160020160009054906101000a900473ffffffffffffffffffffffffffffffffffffffff1690506000600660008373ffffffffffffffffffffffffffffffffffffffff1673ffffffffffffffffffffffffffffffffffffffff168152602001908152602001600020805480602002602001604051908101604052809291908181526020016000905b828210156121c7578382906000526020600020906008020160405180610120016040529081600082015481526020016001820154815260200160028201548152602001600382015481526020016004820160009054906101000a900473ffffffffffffffffffffffffffffffffffffffff1673ffffffffffffffffffffffffffffffffffffffff1673ffffffffffffffffffffffffffffffffffffffff1681526020016004820160149054906101000a900460ff1615151515815260200160058201805461204e90615c6c565b80601f016020809104026020016040519081016040528092919081815260200182805461207a90615c6c565b80156120c75780601f1061209c576101008083540402835291602001916120c7565b820191906000526020600020905b8154815290600101906020018083116120aa57829003601f168201915b505050505081526020016006820180546120e090615c6c565b80601f016020809104026020016040519081016040528092919081815260200182805461210c90615c6c565b80156121595780601f1061212e57610100808354040283529160200191612159565b820191906000526020600020905b81548152906001019060200180831161213c57829003601f168201915b505050505081526020016007820160009054906101000a900473ffffffffffffffffffffffffffffffffffffffff1673ffffffffffffffffffffffffffffffffffffffff1673ffffffffffffffffffffffffffffffffffffffff168152505081526020019060010190611f81565b50505050905060005b8151811015612305573373ffffffffffffffffffffffffffffffffffffffff16828281518110612229577f4e487b7100000000000000000000000000000000000000000000000000000000600052603260045260246000fd5b60200260200101516080015173ffffffffffffffffffffffffffffffffffffffff1614156122f25781818151811061228a577f4e487b7100000000000000000000000000000000000000000000000000000000600052603260045260246000fd5b60200260200101518686815181106122cb577f4e487b7100000000000000000000000000000000000000000000000000000000600052603260045260246000fd5b602002602001018190525084806122e190615ccf565b955050868514156122f157612305565b5b80806122fd90615ccf565b9150506121d0565b505050808061231390615ccf565b915050611ea3565b5081935050505090565b6001818154811061233557600080fd5b906000526020600020906008020160009150905080600001549080600101805461235e90615c6c565b80601f016020809104026020016040519081016040528092919081815260200182805461238a90615c6c565b80156123d75780601f106123ac576101008083540402835291602001916123d7565b820191906000526020600020905b8154815290600101906020018083116123ba57829003601f168201915b5050505050908060020154908060030154908060040180546123f890615c6c565b80601f016020809104026020016040519081016040528092919081815260200182805461242490615c6c565b80156124715780601f1061244657610100808354040283529160200191612471565b820191906000526020600020905b81548152906001019060200180831161245457829003601f168201915b50505050509080600501805461248690615c6c565b80601f01602080910402602001604051908101604052809291908181526020018280546124b290615c6c565b80156124ff5780601f106124d4576101008083540402835291602001916124ff565b820191906000526020600020905b8154815290600101906020018083116124e257829003601f168201915b50505050509080600601805461251490615c6c565b80601f016020809104026020016040519081016040528092919081815260200182805461254090615c6c565b801561258d5780601f106125625761010080835404028352916020019161258d565b820191906000526020600020905b81548152906001019060200180831161257057829003601f168201915b5050505050908060070160009054906101000a900473ffffffffffffffffffffffffffffffffffffffff16905088565b6000806000905060005b6005805490508110156129ad57600060058281548110612610577f4e487b7100000000000000000000000000000000000000000000000000000000600052603260045260246000fd5b906000526020600020906003020160020160009054906101000a900473ffffffffffffffffffffffffffffffffffffffff1690506000600660008373ffffffffffffffffffffffffffffffffffffffff1673ffffffffffffffffffffffffffffffffffffffff168152602001908152602001600020805480602002602001604051908101604052809291908181526020016000905b828210156128eb578382906000526020600020906008020160405180610120016040529081600082015481526020016001820154815260200160028201548152602001600382015481526020016004820160009054906101000a900473ffffffffffffffffffffffffffffffffffffffff1673ffffffffffffffffffffffffffffffffffffffff1673ffffffffffffffffffffffffffffffffffffffff1681526020016004820160149054906101000a900460ff1615151515815260200160058201805461277290615c6c565b80601f016020809104026020016040519081016040528092919081815260200182805461279e90615c6c565b80156127eb5780601f106127c0576101008083540402835291602001916127eb565b820191906000526020600020905b8154815290600101906020018083116127ce57829003601f168201915b5050505050815260200160068201805461280490615c6c565b80601f016020809104026020016040519081016040528092919081815260200182805461283090615c6c565b801561287d5780601f106128525761010080835404028352916020019161287d565b820191906000526020600020905b81548152906001019060200180831161286057829003601f168201915b505050505081526020016007820160009054906101000a900473ffffffffffffffffffffffffffffffffffffffff1673ffffffffffffffffffffffffffffffffffffffff1673ffffffffffffffffffffffffffffffffffffffff1681525050815260200190600101906126a5565b50505050905060005b8151811015612997573373ffffffffffffffffffffffffffffffffffffffff1682828151811061294d577f4e487b7100000000000000000000000000000000000000000000000000000000600052603260045260246000fd5b60200260200101516080015173ffffffffffffffffffffffffffffffffffffffff16141561298457848061298090615ccf565b9550505b808061298f90615ccf565b9150506128f4565b50505080806129a590615ccf565b9150506125c7565b508091505090565b6000600660003373ffffffffffffffffffffffffffffffffffffffff1673ffffffffffffffffffffffffffffffffffffffff168152602001908152602001600020905060005b8180549050811015612b685782828281548110612a41577f4e487b7100000000000000000000000000000000000000000000000000000000600052603260045260246000fd5b9060005260206000209060080201600001541415612b55576001828281548110612a94577f4e487b7100000000000000000000000000000000000000000000000000000000600052603260045260246000fd5b906000526020600020906008020160040160146101000a81548160ff0219169083151502179055506040518060400160405280600981526020017f64656c6976657265640000000000000000000000000000000000000000000000815250828281548110612b2b577f4e487b7100000000000000000000000000000000000000000000000000000000600052603260045260246000fd5b90600052602060002090600802016005019080519060200190612b4f929190614784565b50612b68565b8080612b6090615ccf565b9150506129fb565b505050565b60606000612b7a83614678565b90506000808267ffffffffffffffff811115612bbf577f4e487b7100000000000000000000000000000000000000000000000000000000600052604160045260246000fd5b604051908082528060200260200182016040528015612bf857816020015b612be5614729565b815260200190600190039081612bdd5790505b50905060005b600180549050811015612ffc57858051906020012060018281548110612c4d577f4e487b7100000000000000000000000000000000000000000000000000000000600052603260045260246000fd5b9060005260206000209060080201600601604051612c6b9190615587565b60405180910390201415612fe95760018181548110612cb3577f4e487b7100000000000000000000000000000000000000000000000000000000600052603260045260246000fd5b90600052602060002090600802016040518061010001604052908160008201548152602001600182018054612ce790615c6c565b80601f0160208091040260200160405190810160405280929190818152602001828054612d1390615c6c565b8015612d605780601f10612d3557610100808354040283529160200191612d60565b820191906000526020600020905b815481529060010190602001808311612d4357829003601f168201915b505050505081526020016002820154815260200160038201548152602001600482018054612d8d90615c6c565b80601f0160208091040260200160405190810160405280929190818152602001828054612db990615c6c565b8015612e065780601f10612ddb57610100808354040283529160200191612e06565b820191906000526020600020905b815481529060010190602001808311612de957829003601f168201915b50505050508152602001600582018054612e1f90615c6c565b80601f0160208091040260200160405190810160405280929190818152602001828054612e4b90615c6c565b8015612e985780601f10612e6d57610100808354040283529160200191612e98565b820191906000526020600020905b815481529060010190602001808311612e7b57829003601f168201915b50505050508152602001600682018054612eb190615c6c565b80601f0160208091040260200160405190810160405280929190818152602001828054612edd90615c6c565b8015612f2a5780601f10612eff57610100808354040283529160200191612f2a565b820191906000526020600020905b815481529060010190602001808311612f0d57829003601f168201915b505050505081526020016007820160009054906101000a900473ffffffffffffffffffffffffffffffffffffffff1673ffffffffffffffffffffffffffffffffffffffff1673ffffffffffffffffffffffffffffffffffffffff1681525050828481518110612fc2577f4e487b7100000000000000000000000000000000000000000000000000000000600052603260045260246000fd5b60200260200101819052508280612fd890615ccf565b93505083831415612fe857612ffc565b5b8080612ff490615ccf565b915050612bfe565b50809350505050919050565b613010614884565b60005b6005805490508110156132a7576005818154811061305a577f4e487b7100000000000000000000000000000000000000000000000000000000600052603260045260246000fd5b906000526020600020906003020160020160009054906101000a900473ffffffffffffffffffffffffffffffffffffffff1673ffffffffffffffffffffffffffffffffffffffff168373ffffffffffffffffffffffffffffffffffffffff16141561329457600581815481106130f9577f4e487b7100000000000000000000000000000000000000000000000000000000600052603260045260246000fd5b906000526020600020906003020160405180606001604052908160008201805461312290615c6c565b80601f016020809104026020016040519081016040528092919081815260200182805461314e90615c6c565b801561319b5780601f106131705761010080835404028352916020019161319b565b820191906000526020600020905b81548152906001019060200180831161317e57829003601f168201915b505050505081526020016001820180546131b490615c6c565b80601f01602080910402602001604051908101604052809291908181526020018280546131e090615c6c565b801561322d5780601f106132025761010080835404028352916020019161322d565b820191906000526020600020905b81548152906001019060200180831161321057829003601f168201915b505050505081526020016002820160009054906101000a900473ffffffffffffffffffffffffffffffffffffffff1673ffffffffffffffffffffffffffffffffffffffff1673ffffffffffffffffffffffffffffffffffffffff16815250509150506132a9565b808061329f90615ccf565b915050613013565b505b919050565b6000600180836132be9190615b9c565b815481106132f5577f4e487b7100000000000000000000000000000000000000000000000000000000600052603260045260246000fd5b906000526020600020906008020160070160009054906101000a900473ffffffffffffffffffffffffffffffffffffffff169050919050565b600047905090565b60026020528060005260406000206000915090505481565b806001808461335d9190615b9c565b81548110613394577f4e487b7100000000000000000000000000000000000000000000000000000000600052603260045260246000fd5b9060005260206000209060080201600301546133b09190615b9c565b600180846133be9190615b9c565b815481106133f5577f4e487b7100000000000000000000000000000000000000000000000000000000600052603260045260246000fd5b9060005260206000209060080201600301819055505050565b613417816129b5565b600061342282611d10565b9050600061342f8361347d565b90508073ffffffffffffffffffffffffffffffffffffffff166108fc839081150290604051600060405180830381858888f19350505050158015613477573d6000803e3d6000fd5b50505050565b6000806134898361186c565b90508060800151915050919050565b60005b600660008473ffffffffffffffffffffffffffffffffffffffff1673ffffffffffffffffffffffffffffffffffffffff1681526020019081526020016000208054905081101561362b5783600660008573ffffffffffffffffffffffffffffffffffffffff1673ffffffffffffffffffffffffffffffffffffffff168152602001908152602001600020828154811061355d577f4e487b7100000000000000000000000000000000000000000000000000000000600052603260045260246000fd5b90600052602060002090600802016000015414156136185781600660008573ffffffffffffffffffffffffffffffffffffffff1673ffffffffffffffffffffffffffffffffffffffff16815260200190815260200160002082815481106135ed577f4e487b7100000000000000000000000000000000000000000000000000000000600052603260045260246000fd5b90600052602060002090600802016005019080519060200190613611929190614784565b505061362d565b808061362390615ccf565b91505061349b565b505b505050565b61363a614729565b600180836136489190615b9c565b8154811061367f577f4e487b7100000000000000000000000000000000000000000000000000000000600052603260045260246000fd5b906000526020600020906008020160405180610100016040529081600082015481526020016001820180546136b390615c6c565b80601f01602080910402602001604051908101604052809291908181526020018280546136df90615c6c565b801561372c5780601f106137015761010080835404028352916020019161372c565b820191906000526020600020905b81548152906001019060200180831161370f57829003601f168201915b50505050508152602001600282015481526020016003820154815260200160048201805461375990615c6c565b80601f016020809104026020016040519081016040528092919081815260200182805461378590615c6c565b80156137d25780601f106137a7576101008083540402835291602001916137d2565b820191906000526020600020905b8154815290600101906020018083116137b557829003601f168201915b505050505081526020016005820180546137eb90615c6c565b80601f016020809104026020016040519081016040528092919081815260200182805461381790615c6c565b80156138645780601f1061383957610100808354040283529160200191613864565b820191906000526020600020905b81548152906001019060200180831161384757829003601f168201915b5050505050815260200160068201805461387d90615c6c565b80601f01602080910402602001604051908101604052809291908181526020018280546138a990615c6c565b80156138f65780601f106138cb576101008083540402835291602001916138f6565b820191906000526020600020905b8154815290600101906020018083116138d957829003601f168201915b505050505081526020016007820160009054906101000a900473ffffffffffffffffffffffffffffffffffffffff1673ffffffffffffffffffffffffffffffffffffffff1673ffffffffffffffffffffffffffffffffffffffff16815250509050919050565b613964611792565b1561396e57600080fd5b600560405180606001604052808481526020018381526020013373ffffffffffffffffffffffffffffffffffffffff16815250908060018154018082558091505060019003906000526020600020906003020160009091909190915060008201518160000190805190602001906139e6929190614784565b506020820151816001019080519060200190613a03929190614784565b5060408201518160020160006101000a81548173ffffffffffffffffffffffffffffffffffffffff021916908373ffffffffffffffffffffffffffffffffffffffff16021790555050507f3de11700a5159dc92e9e3e70251edf84aefbb121ab08ede22bf3b7a0002d3f7f828233604051613a809392919061566a565b60405180910390a15050565b6060600660003373ffffffffffffffffffffffffffffffffffffffff1673ffffffffffffffffffffffffffffffffffffffff168152602001908152602001600020805480602002602001604051908101604052809291908181526020016000905b82821015613d33578382906000526020600020906008020160405180610120016040529081600082015481526020016001820154815260200160028201548152602001600382015481526020016004820160009054906101000a900473ffffffffffffffffffffffffffffffffffffffff1673ffffffffffffffffffffffffffffffffffffffff1673ffffffffffffffffffffffffffffffffffffffff1681526020016004820160149054906101000a900460ff16151515158152602001600582018054613bba90615c6c565b80601f0160208091040260200160405190810160405280929190818152602001828054613be690615c6c565b8015613c335780601f10613c0857610100808354040283529160200191613c33565b820191906000526020600020905b815481529060010190602001808311613c1657829003601f168201915b50505050508152602001600682018054613c4c90615c6c565b80601f0160208091040260200160405190810160405280929190818152602001828054613c7890615c6c565b8015613cc55780601f10613c9a57610100808354040283529160200191613cc5565b820191906000526020600020905b815481529060010190602001808311613ca857829003601f168201915b505050505081526020016007820160009054906101000a900473ffffffffffffffffffffffffffffffffffffffff1673ffffffffffffffffffffffffffffffffffffffff1673ffffffffffffffffffffffffffffffffffffffff168152505081526020019060010190613aed565b50505050905090565b60038181548110613d4c57600080fd5b9060005260206000209060020201600091509050806000018054613d6f90615c6c565b80601f0160208091040260200160405190810160405280929190818152602001828054613d9b90615c6c565b8015613de85780601f10613dbd57610100808354040283529160200191613de8565b820191906000526020600020905b815481529060010190602001808311613dcb57829003601f168201915b5050505050908060010160009054906101000a900473ffffffffffffffffffffffffffffffffffffffff16905082565b613e206148bb565b60005b6003805490508110156140255760038181548110613e6a577f4e487b7100000000000000000000000000000000000000000000000000000000600052603260045260246000fd5b906000526020600020906002020160010160009054906101000a900473ffffffffffffffffffffffffffffffffffffffff1673ffffffffffffffffffffffffffffffffffffffff163373ffffffffffffffffffffffffffffffffffffffff1614156140125760038181548110613f09577f4e487b7100000000000000000000000000000000000000000000000000000000600052603260045260246000fd5b9060005260206000209060020201604051806040016040529081600082018054613f3290615c6c565b80601f0160208091040260200160405190810160405280929190818152602001828054613f5e90615c6c565b8015613fab5780601f10613f8057610100808354040283529160200191613fab565b820191906000526020600020905b815481529060010190602001808311613f8e57829003601f168201915b505050505081526020016001820160009054906101000a900473ffffffffffffffffffffffffffffffffffffffff1673ffffffffffffffffffffffffffffffffffffffff1673ffffffffffffffffffffffffffffffffffffffff1681525050915050614090565b808061401d90615ccf565b915050613e23565b50600060405180604001604052806040518060400160405280600481526020017f6e756c6c000000000000000000000000000000000000000000000000000000008152508152602001600073ffffffffffffffffffffffffffffffffffffffff168152509050809150505b90565b60005481565b6000600180836140a99190615b9c565b815481106140e0577f4e487b7100000000000000000000000000000000000000000000000000000000600052603260045260246000fd5b9060005260206000209060080201600201549050919050565b6005818154811061410957600080fd5b906000526020600020906003020160009150905080600001805461412c90615c6c565b80601f016020809104026020016040519081016040528092919081815260200182805461415890615c6c565b80156141a55780601f1061417a576101008083540402835291602001916141a5565b820191906000526020600020905b81548152906001019060200180831161418857829003601f168201915b5050505050908060010180546141ba90615c6c565b80601f01602080910402602001604051908101604052809291908181526020018280546141e690615c6c565b80156142335780601f1061420857610100808354040283529160200191614233565b820191906000526020600020905b81548152906001019060200180831161421657829003601f168201915b5050505050908060020160009054906101000a900473ffffffffffffffffffffffffffffffffffffffff16905083565b6006602052816000526040600020818154811061427f57600080fd5b9060005260206000209060080201600091509150508060000154908060010154908060020154908060030154908060040160009054906101000a900473ffffffffffffffffffffffffffffffffffffffff16908060040160149054906101000a900460ff16908060050180546142f490615c6c565b80601f016020809104026020016040519081016040528092919081815260200182805461432090615c6c565b801561436d5780601f106143425761010080835404028352916020019161436d565b820191906000526020600020905b81548152906001019060200180831161435057829003601f168201915b50505050509080600601805461438290615c6c565b80601f01602080910402602001604051908101604052809291908181526020018280546143ae90615c6c565b80156143fb5780601f106143d0576101008083540402835291602001916143fb565b820191906000526020600020905b8154815290600101906020018083116143de57829003601f168201915b5050505050908060070160009054906101000a900473ffffffffffffffffffffffffffffffffffffffff16905089565b6004600081548092919061443e90615ccf565b9190505550600660003373ffffffffffffffffffffffffffffffffffffffff1673ffffffffffffffffffffffffffffffffffffffff16815260200190815260200160002060405180610120016040528060045481526020018881526020018781526020018681526020018573ffffffffffffffffffffffffffffffffffffffff1681526020016000151581526020018481526020018381526020013373ffffffffffffffffffffffffffffffffffffffff1681525090806001815401808255809150506001900390600052602060002090600802016000909190919091506000820151816000015560208201518160010155604082015181600201556060820151816003015560808201518160040160006101000a81548173ffffffffffffffffffffffffffffffffffffffff021916908373ffffffffffffffffffffffffffffffffffffffff16021790555060a08201518160040160146101000a81548160ff02191690831515021790555060c08201518160050190805190602001906145c7929190614784565b5060e08201518160060190805190602001906145e4929190614784565b506101008201518160070160006101000a81548173ffffffffffffffffffffffffffffffffffffffff021916908373ffffffffffffffffffffffffffffffffffffffff16021790555050507f5a42ae571417f5b2dd64558e1d0590b8b00d167cbf61a94fd74e59689db2c0d660045487878733604051614668959493929190615891565b60405180910390a1505050505050565b6000806000905060005b60018054905081101561471f578380519060200120600182815481106146d1577f4e487b7100000000000000000000000000000000000000000000000000000000600052603260045260246000fd5b90600052602060002090600802016006016040516146ef9190615587565b6040518091039020141561470c57818061470890615ccf565b9250505b808061471790615ccf565b915050614682565b5080915050919050565b60405180610100016040528060008152602001606081526020016000815260200160008152602001606081526020016060815260200160608152602001600073ffffffffffffffffffffffffffffffffffffffff1681525090565b82805461479090615c6c565b90600052602060002090601f0160209004810192826147b257600085556147f9565b82601f106147cb57805160ff19168380011785556147f9565b828001600101855582156147f9579182015b828111156147f85782518255916020019190600101906147dd565b5b50905061480691906148eb565b5090565b60405180610120016040528060008152602001600081526020016000815260200160008152602001600073ffffffffffffffffffffffffffffffffffffffff1681526020016000151581526020016060815260200160608152602001600073ffffffffffffffffffffffffffffffffffffffff1681525090565b60405180606001604052806060815260200160608152602001600073ffffffffffffffffffffffffffffffffffffffff1681525090565b604051806040016040528060608152602001600073ffffffffffffffffffffffffffffffffffffffff1681525090565b5b808211156149045760008160009055506001016148ec565b5090565b600061491b614916846159a4565b61597f565b9050808382526020820190508285602086028201111561493a57600080fd5b60005b8581101561498457813567ffffffffffffffff81111561495c57600080fd5b8086016149698982614aa1565b8552602085019450602084019350505060018101905061493d565b5050509392505050565b60006149a161499c846159d0565b61597f565b905080838252602082019050828560208602820111156149c057600080fd5b60005b858110156149f057816149d68882614acb565b8452602084019350602083019250506001810190506149c3565b5050509392505050565b6000614a0d614a08846159fc565b61597f565b905082815260208101848484011115614a2557600080fd5b614a30848285615c2a565b509392505050565b600081359050614a4781615e31565b92915050565b600082601f830112614a5e57600080fd5b8135614a6e848260208601614908565b91505092915050565b600082601f830112614a8857600080fd5b8135614a9884826020860161498e565b91505092915050565b600082601f830112614ab257600080fd5b8135614ac28482602086016149fa565b91505092915050565b600081359050614ada81615e48565b92915050565b600060208284031215614af257600080fd5b6000614b0084828501614a38565b91505092915050565b60008060408385031215614b1c57600080fd5b6000614b2a85828601614a38565b9250506020614b3b85828601614acb565b9150509250929050565b600080600080600080600060e0888a031215614b6057600080fd5b600088013567ffffffffffffffff811115614b7a57600080fd5b614b868a828b01614a4d565b975050602088013567ffffffffffffffff811115614ba357600080fd5b614baf8a828b01614a77565b965050604088013567ffffffffffffffff811115614bcc57600080fd5b614bd88a828b01614a77565b955050606088013567ffffffffffffffff811115614bf557600080fd5b614c018a828b01614a4d565b945050608088013567ffffffffffffffff811115614c1e57600080fd5b614c2a8a828b01614a77565b93505060a088013567ffffffffffffffff811115614c4757600080fd5b614c538a828b01614aa1565b92505060c088013567ffffffffffffffff811115614c7057600080fd5b614c7c8a828b01614aa1565b91505092959891949750929550565b600060208284031215614c9d57600080fd5b600082013567ffffffffffffffff811115614cb757600080fd5b614cc384828501614aa1565b91505092915050565b60008060408385031215614cdf57600080fd5b600083013567ffffffffffffffff811115614cf957600080fd5b614d0585828601614aa1565b925050602083013567ffffffffffffffff811115614d2257600080fd5b614d2e85828601614aa1565b9150509250929050565b60008060008060008060c08789031215614d5157600080fd5b600087013567ffffffffffffffff811115614d6b57600080fd5b614d7789828a01614aa1565b9650506020614d8889828a01614acb565b9550506040614d9989828a01614acb565b945050606087013567ffffffffffffffff811115614db657600080fd5b614dc289828a01614aa1565b935050608087013567ffffffffffffffff811115614ddf57600080fd5b614deb89828a01614aa1565b92505060a087013567ffffffffffffffff811115614e0857600080fd5b614e1489828a01614aa1565b9150509295509295509295565b600060208284031215614e3357600080fd5b6000614e4184828501614acb565b91505092915050565b600080600060608486031215614e5f57600080fd5b6000614e6d86828701614acb565b9350506020614e7e86828701614a38565b925050604084013567ffffffffffffffff811115614e9b57600080fd5b614ea786828701614aa1565b9150509250925092565b60008060408385031215614ec457600080fd5b6000614ed285828601614acb565b9250506020614ee385828601614acb565b9150509250929050565b6000614ef9838361520a565b905092915050565b6000614f0d83836153a2565b905092915050565b614f1e81615be2565b82525050565b614f2d81615be2565b82525050565b614f3c81615bd0565b82525050565b614f4b81615bd0565b82525050565b6000614f5c82615a62565b614f668185615a9d565b935083602082028501614f7885615a2d565b8060005b85811015614fb45784840389528151614f958582614eed565b9450614fa083615a83565b925060208a01995050600181019050614f7c565b50829750879550505050505092915050565b6000614fd182615a6d565b614fdb8185615aae565b935083602082028501614fed85615a3d565b8060005b85811015615029578484038952815161500a8582614f01565b945061501583615a90565b925060208a01995050600181019050614ff1565b50829750879550505050505092915050565b61504481615bf4565b82525050565b61505381615bf4565b82525050565b6000815461506681615c6c565b6150708186615abf565b9450600182166000811461508b576001811461509c576150cf565b60ff198316865281860193506150cf565b6150a585615a4d565b60005b838110156150c7578154818901526001820191506020810190506150a8565b838801955050505b50505092915050565b60006150e382615a78565b6150ed8185615aca565b93506150fd818560208601615c39565b61510681615da5565b840191505092915050565b600061511c82615a78565b6151268185615adb565b9350615136818560208601615c39565b61513f81615da5565b840191505092915050565b6000615157600f83615adb565b915061516282615db6565b602082019050919050565b600061517a601183615adb565b915061518582615ddf565b602082019050919050565b600061519d601183615adb565b91506151a882615e08565b602082019050919050565b600060608301600083015184820360008601526151d082826150d8565b915050602083015184820360208601526151ea82826150d8565b91505060408301516151ff6040860182614f15565b508091505092915050565b6000610120830160008301516152236000860182615569565b5060208301516152366020860182615569565b5060408301516152496040860182615569565b50606083015161525c6060860182615569565b50608083015161526f6080860182614f15565b5060a083015161528260a086018261503b565b5060c083015184820360c086015261529a82826150d8565b91505060e083015184820360e08601526152b482826150d8565b9150506101008301516152cb610100860182614f33565b508091505092915050565b6000610120830160008301516152ef6000860182615569565b5060208301516153026020860182615569565b5060408301516153156040860182615569565b5060608301516153286060860182615569565b50608083015161533b6080860182614f15565b5060a083015161534e60a086018261503b565b5060c083015184820360c086015261536682826150d8565b91505060e083015184820360e086015261538082826150d8565b915050610100830151615397610100860182614f33565b508091505092915050565b6000610100830160008301516153bb6000860182615569565b50602083015184820360208601526153d382826150d8565b91505060408301516153e86040860182615569565b5060608301516153fb6060860182615569565b506080830151848203608086015261541382826150d8565b91505060a083015184820360a086015261542d82826150d8565b91505060c083015184820360c086015261544782826150d8565b91505060e083015161545c60e0860182614f15565b508091505092915050565b6000610100830160008301516154806000860182615569565b506020830151848203602086015261549882826150d8565b91505060408301516154ad6040860182615569565b5060608301516154c06060860182615569565b50608083015184820360808601526154d882826150d8565b91505060a083015184820360a08601526154f282826150d8565b91505060c083015184820360c086015261550c82826150d8565b91505060e083015161552160e0860182614f15565b508091505092915050565b6000604083016000830151848203600086015261554982826150d8565b915050602083015161555e6020860182614f15565b508091505092915050565b61557281615c20565b82525050565b61558181615c20565b82525050565b60006155938284615059565b915081905092915050565b60006020820190506155b36000830184614f24565b92915050565b600060208201905081810360008301526155d38184614f51565b905092915050565b600060208201905081810360008301526155f58184614fc6565b905092915050565b6000602082019050615612600083018461504a565b92915050565b600060208201905081810360008301526156328184615111565b905092915050565b600060408201905081810360008301526156548185615111565b90506156636020830184614f24565b9392505050565b600060608201905081810360008301526156848186615111565b905081810360208301526156988185615111565b90506156a76040830184614f42565b949350505050565b600060608201905081810360008301526156c98186615111565b905081810360208301526156dd8185615111565b90506156ec6040830184614f24565b949350505050565b6000602082019050818103600083015261570d8161514a565b9050919050565b6000602082019050818103600083015261572d8161516d565b9050919050565b6000602082019050818103600083015261574d81615190565b9050919050565b6000602082019050818103600083015261576e81846151b3565b905092915050565b6000602082019050818103600083015261579081846152d6565b905092915050565b600060208201905081810360008301526157b28184615467565b905092915050565b600060208201905081810360008301526157d4818461552c565b905092915050565b60006020820190506157f16000830184615578565b92915050565b60006101008201905061580d600083018b615578565b818103602083015261581f818a615111565b905061582e6040830189615578565b61583b6060830188615578565b818103608083015261584d8187615111565b905081810360a08301526158618186615111565b905081810360c08301526158758185615111565b905061588460e0830184614f24565b9998505050505050505050565b600060a0820190506158a66000830188615578565b6158b36020830187615578565b6158c06040830186615578565b6158cd6060830185615578565b6158da6080830184614f42565b9695505050505050565b6000610120820190506158fa600083018c615578565b615907602083018b615578565b615914604083018a615578565b6159216060830189615578565b61592e6080830188614f24565b61593b60a083018761504a565b81810360c083015261594d8186615111565b905081810360e08301526159618185615111565b9050615971610100830184614f42565b9a9950505050505050505050565b600061598961599a565b90506159958282615c9e565b919050565b6000604051905090565b600067ffffffffffffffff8211156159bf576159be615d76565b5b602082029050602081019050919050565b600067ffffffffffffffff8211156159eb576159ea615d76565b5b602082029050602081019050919050565b600067ffffffffffffffff821115615a1757615a16615d76565b5b615a2082615da5565b9050602081019050919050565b6000819050602082019050919050565b6000819050602082019050919050565b60008190508160005260206000209050919050565b600081519050919050565b600081519050919050565b600081519050919050565b6000602082019050919050565b6000602082019050919050565b600082825260208201905092915050565b600082825260208201905092915050565b600081905092915050565b600082825260208201905092915050565b600082825260208201905092915050565b6000615af782615c20565b9150615b0283615c20565b9250827fffffffffffffffffffffffffffffffffffffffffffffffffffffffffffffffff03821115615b3757615b36615d18565b5b828201905092915050565b6000615b4d82615c20565b9150615b5883615c20565b9250817fffffffffffffffffffffffffffffffffffffffffffffffffffffffffffffffff0483118215151615615b9157615b90615d18565b5b828202905092915050565b6000615ba782615c20565b9150615bb283615c20565b925082821015615bc557615bc4615d18565b5b828203905092915050565b6000615bdb82615c00565b9050919050565b6000615bed82615c00565b9050919050565b60008115159050919050565b600073ffffffffffffffffffffffffffffffffffffffff82169050919050565b6000819050919050565b82818337600083830152505050565b60005b83811015615c57578082015181840152602081019050615c3c565b83811115615c66576000848401525b50505050565b60006002820490506001821680615c8457607f821691505b60208210811415615c9857615c97615d47565b5b50919050565b615ca782615da5565b810181811067ffffffffffffffff82111715615cc657615cc5615d76565b5b80604052505050565b6000615cda82615c20565b91507fffffffffffffffffffffffffffffffffffffffffffffffffffffffffffffffff821415615d0d57615d0c615d18565b5b600182019050919050565b7f4e487b7100000000000000000000000000000000000000000000000000000000600052601160045260246000fd5b7f4e487b7100000000000000000000000000000000000000000000000000000000600052602260045260246000fd5b7f4e487b7100000000000000000000000000000000000000000000000000000000600052604160045260246000fd5b6000601f19601f8301169050919050565b7f4578697374696e672053656c6c65720000000000000000000000000000000000600082015250565b7f696e76616c69642073746f636b20716e74000000000000000000000000000000600082015250565b7f696e76616c696420707269636520616d74000000000000000000000000000000600082015250565b615e3a81615bd0565b8114615e4557600080fd5b50565b615e5181615c20565b8114615e5c57600080fd5b5056fea2646970667358221220f277ae455467863754ddb031c0552b0dcb4ec7fbbc5263286d8ae922af28166264736f6c63430008040033",
  "linkReferences": {},
  "deployedLinkReferences": {}
}